:020000040000fa
:080000000002040000000000f2
:020000040000fa
:0400080048040000a8
:020000040000fa
:04000c0048040000a4
:020000040000fa
:0400100048040000a0
:020000040000fa
:04001400480400009c
:020000040000fa
:040018004804000098
:020000040000fa
:04001c004804000094
:020000040000fa
:040020004804000090
:020000040000fa
:04002400480400008c
:020000040000fa
:040028004804000088
:020000040000fa
:04002c004804000084
:020000040000fa
:040030004804000080
:020000040000fa
:04003400480400007c
:020000040000fa
:040038004804000078
:020000040000fa
:04003c004804000074
:020000040000fa
:040040004804000070
:020000040000fa
:04004400480400006c
:020000040000fa
:040048004804000068
:020000040000fa
:04004c004804000064
:020000040000fa
:040050004804000060
:020000040000fa
:040054001003000095
:020000040000fa
:040058004804000058
:020000040000fa
:04005c004804000054
:020000040000fa
:040060004804000050
:020000040000fa
:04006400480400004c
:020000040000fa
:040068004804000048
:020000040000fa
:04006c004804000044
:020000040000fa
:040070004804000040
:020000040000fa
:04007400480400003c
:020000040000fa
:040078004804000038
:020000040000fa
:04007c004804000034
:020000040000fa
:040080004804000030
:020000040000fa
:04008400480400002c
:020000040000fa
:040088004804000028
:020000040000fa
:04008c004804000024
:020000040000fa
:040090004804000020
:020000040000fa
:04009400480400001c
:020000040000fa
:040098004804000018
:020000040000fa
:04009c004804000014
:020000040000fa
:0400a0004804000010
:020000040000fa
:0400a400480400000c
:020000040000fa
:0400a8004804000008
:020000040000fa
:0400ac004804000004
:020000040000fa
:0400b0004804000000
:020000040000fa
:0400b40048040000fc
:020000040000fa
:0400b80048040000f8
:020000040000fa
:0400bc0048040000f4
:020000040000fa
:0400c00048040000f0
:020000040000fa
:0400c40048040000ec
:020000040000fa
:0400c80048040000e8
:020000040000fa
:0400cc0048040000e4
:020000040000fa
:0400d00048040000e0
:020000040000fa
:0400d40048040000dc
:020000040000fa
:0400d80048040000d8
:020000040000fa
:0400dc0048040000d4
:020000040000fa
:0400e00048040000d0
:020000040000fa
:0400e40048040000cc
:020000040000fa
:0400e80048040000c8
:020000040000fa
:0400ec0048040000c4
:020000040000fa
:0400f00048040000c0
:020000040000fa
:0400f40048040000bc
:020000040000fa
:0400f80048040000b8
:020000040000fa
:0400fc0048040000b4
:020000040000fa
:0401000048040000af
:020000040000fa
:0401040048040000ab
:020000040000fa
:0401080048040000a7
:020000040000fa
:04010c0048040000a3
:020000040000fa
:04011000480400009f
:020000040000fa
:04011400480400009b
:020000040000fa
:040118004804000097
:020000040000fa
:04011c004804000093
:020000040000fa
:04012000480400008f
:020000040000fa
:04012400480400008b
:020000040000fa
:040128004804000087
:020000040000fa
:04012c004804000083
:020000040000fa
:04013000480400007f
:020000040000fa
:04013400480400007b
:020000040000fa
:040138004804000077
:020000040000fa
:04013c004804000073
:020000040000fa
:04014000480400006f
:020000040000fa
:04014400480400006b
:020000040000fa
:040148004804000067
:020000040000fa
:04014c004804000063
:020000040000fa
:04015000480400005f
:020000040000fa
:04015400480400005b
:020000040000fa
:040158004804000057
:020000040000fa
:04015c004804000053
:020000040000fa
:04016000480400004f
:020000040000fa
:04016400480400004b
:020000040000fa
:040168004804000047
:020000040000fa
:04016c004804000043
:020000040000fa
:04017000480400003f
:020000040000fa
:04017400480400003b
:020000040000fa
:040178004804000037
:020000040000fa
:04017c004804000033
:020000040000fa
:04018000480400002f
:020000040000fa
:04018400480400002b
:020000040000fa
:040188004804000027
:020000040000fa
:04018c004804000023
:020000040000fa
:04019000480400001f
:020000040000fa
:04019400480400001b
:020000040000fa
:040198004804000017
:020000040000fa
:04019c004804000013
:020000040000fa
:0401a000480400000f
:020000040000fa
:0401a400480400000b
:020000040000fa
:0401a8004804000007
:020000040000fa
:0401ac004804000003
:020000040000fa
:0401b00048040000ff
:020000040000fa
:0401b40048040000fb
:020000040000fa
:0401b80048040000f7
:020000040000fa
:0401bc0048040000f3
:020000040000fa
:0401c00048040000ef
:020000040000fa
:0401c40048040000eb
:020000040000fa
:0401c80048040000e7
:020000040000fa
:0401cc0048040000e3
:020000040000fa
:0401d00048040000df
:020000040000fa
:0401d40048040000db
:020000040000fa
:0401d80048040000d7
:020000040000fa
:0401dc0048040000d3
:020000040000fa
:0401e00048040000cf
:020000040000fa
:0401e40048040000cb
:020000040000fa
:0401e80048040000c7
:020000040000fa
:0401ec0048040000c3
:020000040000fa
:0401f00048040000bf
:020000040000fa
:0401f40048040000bb
:020000040000fa
:0401f80048040000b7
:020000040000fa
:0401fc0048040000b3
:020000040000fa
:0402080048040000a6
:020000040000fa
:04020c0048040000a2
:020000040000fa
:04021000480400009e
:020000040000fa
:04021400480400009a
:020000040000fa
:040218004804000096
:020000040000fa
:04021c004804000092
:020000040000fa
:04022000480400008e
:020000040000fa
:04022400480400008a
:020000040000fa
:040228004804000086
:020000040000fa
:04022c004804000082
:020000040000fa
:04023000480400007e
:020000040000fa
:04023400480400007a
:020000040000fa
:040238004804000076
:020000040000fa
:04023c004804000072
:020000040000fa
:04024000480400006e
:020000040000fa
:04024400480400006a
:020000040000fa
:040248004804000066
:020000040000fa
:04024c004804000062
:020000040000fa
:04025000480400005e
:020000040000fa
:040254001003000093
:020000040000fa
:040258004804000056
:020000040000fa
:04025c004804000052
:020000040000fa
:04026000480400004e
:020000040000fa
:04026400480400004a
:020000040000fa
:040268004804000046
:020000040000fa
:04026c004804000042
:020000040000fa
:04027000480400003e
:020000040000fa
:04027400480400003a
:020000040000fa
:040278004804000036
:020000040000fa
:04027c004804000032
:020000040000fa
:04028000480400002e
:020000040000fa
:04028400480400002a
:020000040000fa
:040288004804000026
:020000040000fa
:04028c004804000022
:020000040000fa
:04029000480400001e
:020000040000fa
:04029400480400001a
:020000040000fa
:040298004804000016
:020000040000fa
:04029c004804000012
:020000040000fa
:0402a000480400000e
:020000040000fa
:0402a400480400000a
:020000040000fa
:0402a8004804000006
:020000040000fa
:0402ac004804000002
:020000040000fa
:0402b00048040000fe
:020000040000fa
:0402b40048040000fa
:020000040000fa
:0402b80048040000f6
:020000040000fa
:0402bc0048040000f2
:020000040000fa
:0402c00048040000ee
:020000040000fa
:0402c40048040000ea
:020000040000fa
:0402c80048040000e6
:020000040000fa
:0402cc0048040000e2
:020000040000fa
:0402d00048040000de
:020000040000fa
:0402d40048040000da
:020000040000fa
:0402d80048040000d6
:020000040000fa
:0402dc0048040000d2
:020000040000fa
:0402e00048040000ce
:020000040000fa
:0402e40048040000ca
:020000040000fa
:0402e80048040000c6
:020000040000fa
:0402ec0048040000c2
:020000040000fa
:0402f00048040000be
:020000040000fa
:0402f40048040000ba
:020000040000fa
:0402f80048040000b6
:020000040000fa
:0402fc0048040000b2
:020000040000fa
:0403000048040000ad
:020000040000fa
:0403040048040000a9
:020000040000fa
:0403080048040000a5
:020000040000fa
:04030c0048040000a1
:020000040000fa
:04031000480400009d
:020000040000fa
:040314004804000099
:020000040000fa
:040318004804000095
:020000040000fa
:04031c004804000091
:020000040000fa
:04032000480400008d
:020000040000fa
:040324004804000089
:020000040000fa
:040328004804000085
:020000040000fa
:04032c004804000081
:020000040000fa
:04033000480400007d
:020000040000fa
:040334004804000079
:020000040000fa
:040338004804000075
:020000040000fa
:04033c004804000071
:020000040000fa
:04034000480400006d
:020000040000fa
:040344004804000069
:020000040000fa
:040348004804000065
:020000040000fa
:04034c004804000061
:020000040000fa
:04035000480400005d
:020000040000fa
:040354004804000059
:020000040000fa
:040358004804000055
:020000040000fa
:04035c004804000051
:020000040000fa
:04036000480400004d
:020000040000fa
:040364004804000049
:020000040000fa
:040368004804000045
:020000040000fa
:04036c004804000041
:020000040000fa
:04037000480400003d
:020000040000fa
:040374004804000039
:020000040000fa
:040378004804000035
:020000040000fa
:04037c004804000031
:020000040000fa
:04038000480400002d
:020000040000fa
:040384004804000029
:020000040000fa
:040388004804000025
:020000040000fa
:04038c004804000021
:020000040000fa
:04039000480400001d
:020000040000fa
:040394004804000019
:020000040000fa
:040398004804000015
:020000040000fa
:04039c004804000011
:020000040000fa
:0403a000480400000d
:020000040000fa
:0403a4004804000009
:020000040000fa
:0403a8004804000005
:020000040000fa
:0403ac004804000001
:020000040000fa
:0403b00048040000fd
:020000040000fa
:0403b40048040000f9
:020000040000fa
:0403b80048040000f5
:020000040000fa
:0403bc0048040000f1
:020000040000fa
:0403c00048040000ed
:020000040000fa
:0403c40048040000e9
:020000040000fa
:0403c80048040000e5
:020000040000fa
:0403cc0048040000e1
:020000040000fa
:0403d00048040000dd
:020000040000fa
:0403d40048040000d9
:020000040000fa
:0403d80048040000d5
:020000040000fa
:0403dc0048040000d1
:020000040000fa
:0403e00048040000cd
:020000040000fa
:0403e40048040000c9
:020000040000fa
:0403e80048040000c5
:020000040000fa
:0403ec0048040000c1
:020000040000fa
:0403f00048040000bd
:020000040000fa
:0403f40048040000b9
:020000040000fa
:0403f80048040000b5
:020000040000fa
:0403fc0048040000b1
:020000040000fa
:10040000efc021000e7f22000e01880000000000d6
:10041000000020000000e000020032000001200087
:1004200020028800140007002f0107000000e000f0
:1004300003003a00a0d42000010020000200370091
:100440000000200001002000810f70000100320038
:1004500014000700000020000000e000020032004d
:100460000000020000000000240d02000000000057
:100470000040da000000fe004440a90020002000f7
:100480000000e0000300320010002000900188000e
:100490004440a800000006008a1f78008b1f7800e7
:1004a00000000600a1028800800478000000eb0034
:1004b0001f003700e284440054a0b4009905ba003c
:1004c000e284440054a0b4009906ba00e2844400d7
:1004d00054a0b4000006eb00476fde00fd07b20039
:1004e000ae018800636ce10003003a00eaff0700f8
:1004f0000000eb000e003700606ce10008003a00dd
:10050000004deb000a05e800020039003420ec0041
:100510000af0a0008b05e900f9ff3e000400370057
:100520006168e100010032000086eb000b0007006b
:1005300019c7ba001905ba000e04e00003003a001a
:100540000a00e000dbff3a0000000600fe07b200f0
:10055000ae0288008a047800f5ff37000cd0a300b3
:10056000e20f4d001c00390089027800354dba00b9
:100570000a05e800020039003420ec000af0a0006f
:100580008b05e9000f003200254dba000a05e8008e
:10059000020039003420ec000af0a0008b05e900cd
:1005a000080032000c00e0000600320015cdba0051
:1005b0000a05e800020039003420ec000af0a0002f
:1005c0008b05e9008984e80054a0b4000b00e0002a
:1005d000e2ff3a00000006009902ba00055d7800cb
:1005e0008b05e900f7ff3200c82ade00055d7800c0
:1005f0008b05e900f3ff32000c00e000f1ff320050
:1006000019ddba00eeff37001a08040000000000f0
:100610009e060400000000008c0a04000000000098
:100620003600f800809fbe00829fbe00849fbe00ff
:10063000869fbe003200f8003400f8001000200051
:10064000a001880010002000900188000200fa003c
:1006500082003700604080000000e00003003200ac
:10066000e10f500029003200510037004f01070010
:100670000080fb0050408800504080004800dd00b2
:1006800050408800490107008080fb0050408000f6
:10069000008040005040880050408000304088007a
:1006a000420107000080fb0050408800504080005d
:1006b0004800dd00504088003c0107008080fb00be
:1006c0005040800000804000504088005040800032
:1006d00020408800350107000080fb005040880062
:1006e000504080004040880040408000e10f5000b2
:1006f00002003a0010002000504088006040800056
:100700000000e8006040880029003700270107004a
:100710000080fb0050408800504080004800dd0011
:1007200050408800210107008080fb00504080007d
:100730000080400050408800104080005140800000
:100740000001400000012100000041000108780084
:10075000160107000080fb005040880050408000d8
:100760004800dd0050408800100107008080fb0039
:1007700050408000008040005040880010408000c1
:100780005140800000014000208120000000410015
:1007900001087800104080000000e8001040880048
:1007a000004080000000e8000040880000000000d9
:1007b000004080000000e00008003400014080009c
:1007c000f03f200000017800110009008200d800ed
:1007d0008000fd000000e0000400320001408000c5
:1007e00030408000808f50001c003a008fa1a8008c
:1007f0000000eb00000f7800e2692000414080001b
:100800002040800002000100c0a82000000001007c
:100810000228ef000140800030408000808f5000af
:100820000200320020c4b300ef0007000140800046
:1008300030408000808f500007003a000c28ef0005
:100840000028ef000628ef000428ef000828ef003a
:1008500020c4b300e40007008fa1a900ee00070048
:100860000004e0007bff3a008560a9000080fa00e8
:100870003400f9003200f9004f03be004f02be0001
:100880004f01be004f00be003600f90000400600d8
:100890000040da000000fe000800fa00100798008f
:1008a0002107980032079800be009000010f7800e1
:1008b000070037002e00900010407800ae00900036
:1008c0008100e80021079800c70007001e0fe9001b
:1008d0001e0078000000e000f6ff3a003e009000a5
:0c08e0000080fa00000006000000050087
:020000040000fa
:1008ec000200fa00ff3ffc009420ef009620ef007e
:1008fc009820ef009a20ef009c20ef009e20ef0044
:10090c00a020ef00a220ef000000fc0081e0a80076
:10091c000108800000082000008060000000e0005a
:10092c0041003a000001eb0080072000a1092000e3
:10093c0013102000804978008149780082497800a2
:10094c0000088000000178000200a0006004200074
:10095c00710520000310200080497800814978003f
:10096c008249780000712200000f78001e0fe90008
:10097c001e0078000000e000040032000008800037
:10098c00610060000000e000f8ff3a000221ef0077
:10099c001200200080072000a10920001310200065
:1009ac0080497800814978008249780000088000ed
:1009bc00000178000200a0006004200071052000f6
:1009cc000310200080497800814978008249780022
:1009dc0002a1a80000712200000f78001e0fe90090
:1009ec001e0078000000e0000400320000088000c7
:1009fc00610060000000e000f8ff3a000071220086
:100a0c00000f78001e0fe9001e0078000000e000c7
:100a1c000500320001088000000220000080600008
:100a2c000000e000f7ff32000008800000017800b1
:100a3c000210a000600420007105200003102000ab
:100a4c008049780081497800824978008821ef003c
:100a5c009221ef009c21ef000080fa0000000600bc
:100a6c000200fa00000f7800f03f20009e00780092
:100a7c00808f500003003600ff3f09000060fe002d
:100a8c00050037001e0078004400dd000000e9007e
:100a9c00008009000060fe000080fa0000000600e3
:100aac000400fa00008fbe001e00be00e00f5000d4
:100abc00e08f580008003200a0e72300010020005e
:100acc001e01be00008009000060fe001200b10093
:100adc000380b100fbff3a000080fa000000060022
:100aec000000fa009501a9009901a80000088000f7
:100afc00000178000260a100600420007105200054
:100b0c0003102000804978008149780082497800e0
:100b1c00811d800000fc2f00008060009001b3005c
:100b2c00801d8800711f800000fc2f000080600079
:100b3c003000b300701f88000008800000017800ae
:100b4c000260a0006004200071052000031020004a
:100b5c008049780081497800824978008000200023
:100b6c0000288800000c200010288800001a2000a3
:100b7c00402888000a25ef000c25ef000e25ef0019
:100b8c001025ef001225ef001425ef0001e5a80059
:100b9c000345a8008560a9000080fa00000006004b
:100bac000000fa00000000001028800061006000c6
:100bbc000000e000fcff32001028800062006000a2
:100bcc000000e000010032000225a900302880005e
:100bdc00004078000080fa00000006000200fa00d5
:100bec00004f780000000000112880000020200039
:100bfc00008060000000e000fbff3a001e80fb005c
:100c0c00202888000080fa00000006000000fa008e
:100c1c001028800000407800614060000080fb00dc
:100c2c0000f0a7000000ea000000ea004f00de0020
:100c3c00004078000080fa00000006000000fa0076
:100c4c001128800000202000008060000000e000df
:100c5c0007003a001128800000402000008060004e
:100c6c000000e000020032001000200001003700fc
:100c7c000000eb00004078000080fa000000060045
:100c8c000000fa00102880004800de00614060007f
:100c9c000080fb0000f0a7000000ea000000ea0062
:100cac004f00de00004078000080fa0000000600d3
:100cbc000000fa008421a8008421a9000080fa0019
:100ccc00000006000000fa008b61a9008f61a800eb
:100cdc008521a9009861a900f5ff07008f61a90083
:100cec000080fa00000006000000fa008f61a800e6
:100cfc008521a8009861a900edff07008f61a9006c
:100d0c000080fa00000006000000fa008f61a800c5
:100d1c008521a9009861a800e5ff07008f61a90053
:100d2c00a0812000000001000080fa0000000600f5
:100d3c000a00fa0030079800410798008f61a8005c
:100d4c008521a8009861a800d9ff07008f61a90030
:100d5c000000eb00000f78004e009000e10f5000f7
:100d6c0003003a0010002000000f7800020037004a
:100d7c000000eb00000f78001e00780000407800a7
:100d8c00614060000080fb00610060004900dd00f4
:100d9c00210c80000190a10001007000200c880043
:100dac00c3ff07000000eb00100798000000eb00e9
:100dbc00200798000000eb00100798008700370010
:100dcc000000eb00200798007d0037003e009000eb
:100ddc0061006000004078000004e0000300320075
:100dec0010002000000f7800020037000000eb001c
:100dfc00000f78002e009000e30f500033003200fb
:100e0c00e30f500007003c00e10f500019003200c6
:100e1c00e10f500022003c000000e0000a0032000c
:100e2c0061003700e50f50003e003200e50f500026
:100e3c0031003500e60f500045003200e70f50003e
:100e4c004e003200580037001e0078000040780039
:100e5c00614060000080fb00610060004900dd0023
:100e6c00210c80000190a10001007000200c880072
:100e7c004d0037001e007800004078006140600093
:100e8c000080fb00610060004300dd00c10c8000ad
:100e9c000130a10001007000c00c88004200370036
:100eac001e00780000407800614060000080fb006c
:100ebc00610060004400dd00c10c80000140a10015
:100ecc0001007000c00c8800370037001e0078004d
:100edc0000407800614060000080fb006100600011
:100eec004500dd00c10c80000150a1000100700024
:100efc00c00c88002c0037001e00780000407800e1
:100f0c00614060000080fb00610060004500dd0076
:100f1c00710c80000150a10001007000700c880061
:100f2c00210037001e00780000407800614060000e
:100f3c000080fb00610060004600dd00710c800049
:100f4c000160a10001007000700c880016003700d1
:100f5c001e00780000407800614060000080fb00bb
:100f6c00610060004700dd00710c80000170a10081
:100f7c0001007000700c88000b0037001e00780018
:100f8c0000407800614060000080fb006100600060
:100f9c004800dd00710c80000180a1000100700090
:100fac00700c8800000000003e0090000000d10092
:100fbc00300798002e0090000000e80020079800f1
:100fcc002e009000e70f500080ff340038ff070020
:100fdc001e0090000000e800100798001e00900012
:100fec00e10f500076ff34000080fa00000006008c
:100ffc000000fa008121a8009461a8009481a80047
:10100c0094a1a8008aa1a8008ac1a8008ae1a8001e
:10101c008b01a8008021a8008b81a9008ba1a800be
:10102c000080fa00000006000c00fa00f0ff070038
:10103c000000eb00000f78000000eb001007980098
:10104c000000eb00500798000000eb002007980010
:10105c000000eb00300798000000eb004007980000
:10106c008f81a80000000000100c8000620060005e
:10107c000000e000fcff32000b0137000000eb0029
:10108c00000f7800710037000000eb00100798008b
:10109c006a0037001e009000e30f50003900320048
:1010ac00e30f500007003c00e10f500049003200f4
:1010bc00e10f50003d003c000000e0004f0032000a
:1010cc0058003700e50f50001a003200e50f5000b1
:1010dc0022003500e60f50000c003200e70f5000e4
:1010ec0050003a00100c80004900de0061406000a6
:1010fc000080fb00500798005e009000be0090003e
:10110c00008040003007980046003700b00c80008b
:10111c004300de00614060000080fb005007980037
:10112c005e009000be0090000080400030079800e8
:10113c003c003700b00c80004400de0061406000d1
:10114c000080fb00500798005e009000be009000ed
:10115c00008040003007980032003700b00c80004f
:10116c004500de00614060000080fb0050079800e5
:10117c005e009000be009000008040003007980098
:10118c0028003700600c80004500de0061406000e4
:10119c000080fb00500798005e009000be0090009d
:1011ac0000804000300798001e003700600c800063
:1011bc004600de00614060000080fb005007980094
:1011cc005e009000be009000008040003007980048
:1011dc0014003700600c80004700de0061406000a6
:1011ec000080fb00500798005e009000be0090004d
:1011fc0000804000300798000a003700600c800027
:10120c004800de00614060000080fb005007980041
:10121c005e009000be0090000080400030079800f7
:10122c00000000003e0090000000400030079800d5
:10123c001e0090000000e800100798001e009000af
:10124c00e70f500093ff34001e0fe8001e007800db
:10125c00e10f50008cff34000000eb00000f780011
:10126c00710037000000eb00100798006a0037008f
:10127c001e009000e30f500039003200e30f5000c5
:10128c0007003c00e10f500049003200e10f500014
:10129c003d003c000000e0004f00320058003700d9
:1012ac00e50f50001a003200e50f50002200350007
:1012bc00e60f50000c003200e70f500050003a00cf
:1012cc00100c80004900de00614060000080fb00d3
:1012dc00500798005e009000ce0090000080400007
:1012ec004007980046003700b00c80004300de0039
:1012fc00614060000080fb00500798005e00900089
:10130c00ce00900000804000400798003c00370061
:10131c00b00c80004400de00614060000080fb00e7
:10132c00500798005e009000ce00900000804000b6
:10133c004007980032003700b00c80004500de00fa
:10134c00614060000080fb00500798005e00900038
:10135c00ce00900000804000400798002800370025
:10136c00600c80004500de00614060000080fb00e6
:10137c00500798005e009000ce0090000080400066
:10138c00400798001e003700600c80004600de000d
:10139c00614060000080fb00500798005e009000e8
:1013ac00ce009000008040004007980014003700e9
:1013bc00600c80004700de00614060000080fb0094
:1013cc00500798005e009000ce0090000080400016
:1013dc00400798000a003700600c80004800de00cf
:1013ec00614060000080fb00500798005e00900098
:1013fc00ce009000008040004007980000000000e4
:10140c004e00900000004000400798001e00900025
:10141c000000e800100798001e009000e70f500035
:10142c0093ff34001e0fe8001e007800e10f5000ff
:10143c008cff34002e0090008000400020812000a2
:10144c0000804000900078004e009000808f50008b
:10145c0006003a00e18021002e0090000080400040
:10146c0011c0b3000148780005003700e18021006d
:10147c002e009000008040008040eb000148780076
:10148c00ae009000f03f2000808f5000030032002f
:10149c00704080000000e800704088002e00900032
:1014ac000000e80020079800ae009000f03f2000fc
:1014bc00808f500004003c00314080007040800060
:1014cc00808f5000edfe3a000080fa00000006000c
:1014dc000000fa008121a9009461a9009481a9005f
:1014ec0094a1a9008aa1a9008ac1a9008ae1a90036
:1014fc008b01a9008021a9008b61a9008b81a80018
:10150c008ba1a9000080fa00000006000e00fa0072
:10151c000000eb00000f78000000eb006007980063
:10152c000000eb00100798000000eb00200798006b
:10153c000000eb0030079800ebfd07000000eb000b
:10154c00400798002e0137004e00900080004000ac
:10155c0000012100008040009000780011079800e5
:10156c004e00900080004000208120000080400050
:10157c0090007800210798000000eb0050079800bd
:10158c000000eb0050079800850037000000eb00ce
:10159c00000f78007b0037001e0090006100600097
:1015ac00004078000004e00003003200100020002e
:1015bc0030079800020037000000eb00300798005d
:1015cc001e007800e30f500033003200e30f500090
:1015dc0007003c00e10f500019003200e10f5000f1
:1015ec0022003c000000e0000a00320061003700dd
:1015fc00e50f50003e003200e50f50003100350081
:10160c00e60f500045003200e70f50004e0032004c
:10161c00580037003e0090000040780061406000a8
:10162c000080fb00610060004900dd00210c80009f
:10163c000190a10001007000200c88004d003700c3
:10164c003e00900000407800614060000080fb008c
:10165c00610060004300dd00c10c80000130a1007e
:10166c0001007000c00c8800420037003e00900062
:10167c0000407800614060000080fb006100600069
:10168c004400dd00c10c80000140a100010070008d
:10169c00c00c8800370037003e00900000407800f6
:1016ac00614060000080fb00610060004500dd00cf
:1016bc00c10c80000150a10001007000c00c88001a
:1016cc002c0037003e009000004078006140600024
:1016dc000080fb00610060004500dd00710c8000a3
:1016ec000150a10001007000700c8800210037002f
:1016fc003e00900000407800614060000080fb00dc
:10170c00610060004600dd00710c80000160a100ea
:10171c0001007000700c8800160037003e0090002d
:10172c0000407800614060000080fb0061006000b8
:10173c004700dd00710c80000170a10001007000f9
:10174c00700c88000b0037003e00900000407800c1
:10175c00614060000080fb00610060004800dd001b
:10176c00710c80000180a10001007000700c8800d9
:10177c00000000001e0090000000d100100798002f
:10178c001e0fe8001e007800e70f500082ff3400a7
:10179c0047fd07005e0090000000e800500798002d
:1017ac005e009000e10f500078ff34000000eb0069
:1017bc0050079800850037000000eb00000f780000
:1017cc007b0037002e009000610060000040780024
:1017dc000004e000030032001000200030079800e5
:1017ec00020037000000eb00300798001e00780064
:1017fc00e30f500033003200e30f500007003c00b1
:10180c00e10f500019003200e10f500022003c00a3
:10181c000000e0000a00320061003700e50f5000c4
:10182c003e003200e50f500031003500e60f50004d
:10183c0045003200e70f50004e00320058003700d0
:10184c003e00900000407800614060000080fb008a
:10185c00610060004900dd00210c80000190a100b6
:10186c0001007000200c88004d0037003e009000f5
:10187c0000407800614060000080fb006100600067
:10188c004300dd00c10c80000130a100010070009c
:10189c00c00c8800420037003e00900000407800e9
:1018ac00614060000080fb00610060004400dd00ce
:1018bc00c10c80000140a10001007000c00c880028
:1018cc00370037003e009000004078006140600017
:1018dc000080fb00610060004500dd00c10c800051
:1018ec000150a10001007000c00c88002c003700d2
:1018fc003e00900000407800614060000080fb00da
:10190c00610060004500dd00710c80000150a100f9
:10191c0001007000700c8800210037003e00900020
:10192c0000407800614060000080fb0061006000b6
:10193c004600dd00710c80000160a1000100700008
:10194c00700c8800160037003e00900000407800b4
:10195c00614060000080fb00610060004700dd001a
:10196c00710c80000170a10001007000700c8800e7
:10197c000b0037003e009000004078006140600092
:10198c000080fb00610060004800dd00710c8000ed
:10199c000180a10001007000700c880000000000a4
:1019ac002e0090000000d100200798001e0fe800c8
:1019bc001e007800e70f500082ff3400bcfc0700cb
:1019cc005e0090000000e800500798005e00900058
:1019dc00e10f500078ff3400ce009000f03f200063
:1019ec00808f500003003200804080000000e8002f
:1019fc00804088004e0090000000e80040079800ee
:101a0c00ce009000f03f2000808f500004003c007e
:101a1c003140800080408000808f5000cafe3a0028
:101a2c008140800030408000808f500001003a00df
:101a3c00a4fc07000080fa00000006000000fa0079
:101a4c00a7fb070026fc0700a1fe07009560a80075
:101a5c00410580000000270001007000400588004f
:101a6c008541a9008141a900010037000000000058
:101a7c0081408000f03f2000808f5000fbff3a0037
:081a8c0069fd0700faff3700b5
:020000040000fa
:101a940012080000fc130000800000000008000091
:0c1aa400120000008000000000000000a4
:020000040000fa
:020000040002f8
:04aff0003f720000ac
:020000040000fa
:020000040002f8
:04aff400ffe7000073
:020000040000fa
:020000040002f8
:04aff8005f300000c6
:020000040000fa
:020000040002f8
:04affc003f3f0000d3
:00000001FF
